{
  "_format": "hh-sol-artifact-1",
  "contractName": "DocumentVerification",
  "sourceName": "contracts/DocumentVerification.sol",
  "abi": [
    {
      "inputs": [],
      "stateMutability": "nonpayable",
      "type": "constructor"
    },
    {
      "anonymous": false,
      "inputs": [
        {
          "indexed": true,
          "internalType": "bytes32",
          "name": "documentHash",
          "type": "bytes32"
        },
        {
          "indexed": true,
          "internalType": "address",
          "name": "owner",
          "type": "address"
        },
        {
          "indexed": false,
          "internalType": "uint256",
          "name": "timestamp",
          "type": "uint256"
        }
      ],
      "name": "DocumentRegistered",
      "type": "event"
    },
    {
      "anonymous": false,
      "inputs": [
        {
          "indexed": true,
          "internalType": "bytes32",
          "name": "documentHash",
          "type": "bytes32"
        },
        {
          "indexed": false,
          "internalType": "enum DocumentVerification.Status",
          "name": "status",
          "type": "uint8"
        },
        {
          "indexed": true,
          "internalType": "address",
          "name": "verifier",
          "type": "address"
        }
      ],
      "name": "DocumentStatusChanged",
      "type": "event"
    },
    {
      "anonymous": false,
      "inputs": [
        {
          "indexed": true,
          "internalType": "address",
          "name": "verifier",
          "type": "address"
        }
      ],
      "name": "VerifierAdded",
      "type": "event"
    },
    {
      "anonymous": false,
      "inputs": [
        {
          "indexed": true,
          "internalType": "address",
          "name": "verifier",
          "type": "address"
        }
      ],
      "name": "VerifierRemoved",
      "type": "event"
    },
    {
      "inputs": [
        {
          "internalType": "address",
          "name": "verifier",
          "type": "address"
        }
      ],
      "name": "addVerifier",
      "outputs": [],
      "stateMutability": "nonpayable",
      "type": "function"
    },
    {
      "inputs": [
        {
          "internalType": "address",
          "name": "",
          "type": "address"
        }
      ],
      "name": "authorizedVerifiers",
      "outputs": [
        {
          "internalType": "bool",
          "name": "",
          "type": "bool"
        }
      ],
      "stateMutability": "view",
      "type": "function"
    },
    {
      "inputs": [
        {
          "internalType": "bytes32",
          "name": "documentHash",
          "type": "bytes32"
        }
      ],
      "name": "documentExists",
      "outputs": [
        {
          "internalType": "bool",
          "name": "",
          "type": "bool"
        }
      ],
      "stateMutability": "view",
      "type": "function"
    },
    {
      "inputs": [
        {
          "internalType": "bytes32",
          "name": "documentHash",
          "type": "bytes32"
        }
      ],
      "name": "getDocumentInfo",
      "outputs": [
        {
          "internalType": "string",
          "name": "metadataURI",
          "type": "string"
        },
        {
          "internalType": "address",
          "name": "documentOwner",
          "type": "address"
        },
        {
          "internalType": "enum DocumentVerification.Status",
          "name": "status",
          "type": "uint8"
        },
        {
          "internalType": "uint256",
          "name": "timestamp",
          "type": "uint256"
        }
      ],
      "stateMutability": "view",
      "type": "function"
    },
    {
      "inputs": [
        {
          "internalType": "bytes32",
          "name": "documentHash",
          "type": "bytes32"
        }
      ],
      "name": "getVerifierCount",
      "outputs": [
        {
          "internalType": "uint256",
          "name": "",
          "type": "uint256"
        }
      ],
      "stateMutability": "view",
      "type": "function"
    },
    {
      "inputs": [
        {
          "internalType": "bytes32",
          "name": "documentHash",
          "type": "bytes32"
        },
        {
          "internalType": "address",
          "name": "verifier",
          "type": "address"
        }
      ],
      "name": "hasVerified",
      "outputs": [
        {
          "internalType": "bool",
          "name": "",
          "type": "bool"
        }
      ],
      "stateMutability": "view",
      "type": "function"
    },
    {
      "inputs": [],
      "name": "owner",
      "outputs": [
        {
          "internalType": "address",
          "name": "",
          "type": "address"
        }
      ],
      "stateMutability": "view",
      "type": "function"
    },
    {
      "inputs": [
        {
          "internalType": "bytes32",
          "name": "documentHash",
          "type": "bytes32"
        },
        {
          "internalType": "string",
          "name": "metadataURI",
          "type": "string"
        }
      ],
      "name": "registerDocument",
      "outputs": [],
      "stateMutability": "nonpayable",
      "type": "function"
    },
    {
      "inputs": [
        {
          "internalType": "address",
          "name": "verifier",
          "type": "address"
        }
      ],
      "name": "removeVerifier",
      "outputs": [],
      "stateMutability": "nonpayable",
      "type": "function"
    },
    {
      "inputs": [
        {
          "internalType": "bytes32",
          "name": "documentHash",
          "type": "bytes32"
        },
        {
          "internalType": "enum DocumentVerification.Status",
          "name": "newStatus",
          "type": "uint8"
        }
      ],
      "name": "updateDocumentStatus",
      "outputs": [],
      "stateMutability": "nonpayable",
      "type": "function"
    }
  ],
  "bytecode": "0x608060405234801561001057600080fd5b50600280546001600160a01b031916339081179091556000908152600160208190526040909120805460ff19169091179055610cf3806100516000396000f3fe608060405234801561001057600080fd5b506004361061009e5760003560e01c80639a891716116100665780639a89171614610145578063c339046814610168578063ca2dfd0a14610189578063cbfe6d411461019c578063fa17185a146101ca57600080fd5b8063090b0a30146100a35780632a1ef220146100cf57806350944f4a146100e45780638da5cb5b146101075780639000b3d614610132575b600080fd5b6100b66100b13660046108b9565b6101dd565b6040516100c6949392919061090a565b60405180910390f35b6100e26100dd36600461097f565b6102fa565b005b6100f76100f23660046109cf565b6104ca565b60405190151581526020016100c6565b60025461011a906001600160a01b031681565b6040516001600160a01b0390911681526020016100c6565b6100e26101403660046109fb565b610532565b6100f76101533660046109fb565b60016020526000908152604090205460ff1681565b61017b6101763660046108b9565b610651565b6040519081526020016100c6565b6100e26101973660046109fb565b6106a5565b6100f76101aa3660046108b9565b6000908152602081905260409020600201546001600160a01b0316151590565b6100e26101d8366004610a33565b6107cf565b600081815260208190526040812060020154606091908190819085906001600160a01b03166102275760405162461bcd60e51b815260040161021e90610aee565b60405180910390fd5b60008681526020819052604090206002810154600382015460018301805490926001600160a01b03811692600160a01b90910460ff1691849061026990610b25565b80601f016020809104026020016040519081016040528092919081815260200182805461029590610b25565b80156102e25780601f106102b7576101008083540402835291602001916102e2565b820191906000526020600020905b8154815290600101906020018083116102c557829003601f168201915b50505050509350955095509550955050509193509193565b3360009081526001602052604090205460ff168061032257506002546001600160a01b031633145b61035f5760405162461bcd60e51b815260206004820152600e60248201526d139bdd08185d5d1a1bdc9a5e995960921b604482015260640161021e565b60008281526020819052604090206002015482906001600160a01b03166103985760405162461bcd60e51b815260040161021e90610aee565b600083815260208181526040808320338452600501909152902054839060ff16156104055760405162461bcd60e51b815260206004820181905260248201527f416c726561647920766572696669656420627920746869732061646472657373604482015260640161021e565b600084815260208190526040902060028082018054869260ff60a01b1990911690600160a01b90849081111561043d5761043d6108d2565b0217905550600481018054600181810183556000928352602080842090920180546001600160a01b0319163390811790915580845260058501909252604092839020805460ff19169091179055905186907f41f5552a911ae945fbe19c18178ec52a09e8dd9298e2f0257df9634a252d03d3906104bb908890610b59565b60405180910390a35050505050565b60008281526020819052604081206002015483906001600160a01b03166105035760405162461bcd60e51b815260040161021e90610aee565b50506000918252602082815260408084206001600160a01b039390931684526005909201905290205460ff1690565b6002546001600160a01b0316331461055c5760405162461bcd60e51b815260040161021e90610b6d565b6001600160a01b0381166105a45760405162461bcd60e51b815260206004820152600f60248201526e496e76616c6964206164647265737360881b604482015260640161021e565b6001600160a01b03811660009081526001602052604090205460ff16156106025760405162461bcd60e51b815260206004820152601260248201527120b63932b0b23c9030903b32b934b334b2b960711b604482015260640161021e565b6001600160a01b0381166000818152600160208190526040808320805460ff1916909217909155517f6d05492139c5ea989514a5d2150c028041e5c087e2a39967f67dc7d2655adb819190a250565b60008181526020819052604081206002015482906001600160a01b031661068a5760405162461bcd60e51b815260040161021e90610aee565b60008381526020819052604090206004015491505b50919050565b6002546001600160a01b031633146106cf5760405162461bcd60e51b815260040161021e90610b6d565b6001600160a01b03811660009081526001602052604090205460ff166107285760405162461bcd60e51b815260206004820152600e60248201526d2737ba1030903b32b934b334b2b960911b604482015260640161021e565b6002546001600160a01b03908116908216036107865760405162461bcd60e51b815260206004820152601f60248201527f43616e6e6f742072656d6f7665206f776e657220617320766572696669657200604482015260640161021e565b6001600160a01b038116600081815260016020526040808220805460ff19169055517f44a3cd4eb5cc5748f6169df057b1cb2ae4c383e87cd94663c430e095d4cba4249190a250565b6000828152602081905260409020600201546001600160a01b0316156108375760405162461bcd60e51b815260206004820152601b60248201527f446f63756d656e7420616c726561647920726567697374657265640000000000604482015260640161021e565b6000828152602081905260409020828155600181016108568382610bfd565b506002810180546001600160a81b0319163360ff60a01b198116919091179091554260038301819055604080519182525185917f6569e54c43a697fc61e67763858d5abef16899d2b13215c7c07090aa878b24a8919081900360200190a3505050565b6000602082840312156108cb57600080fd5b5035919050565b634e487b7160e01b600052602160045260246000fd5b6003811061090657634e487b7160e01b600052602160045260246000fd5b9052565b608081526000855180608084015260005b8181101561093857602081890181015160a086840101520161091b565b50600060a08285018101919091526001600160a01b0387166020850152601f909101601f1916830101905061097060408301856108e8565b82606083015295945050505050565b6000806040838503121561099257600080fd5b823591506020830135600381106109a857600080fd5b809150509250929050565b80356001600160a01b03811681146109ca57600080fd5b919050565b600080604083850312156109e257600080fd5b823591506109f2602084016109b3565b90509250929050565b600060208284031215610a0d57600080fd5b610a16826109b3565b9392505050565b634e487b7160e01b600052604160045260246000fd5b60008060408385031215610a4657600080fd5b82359150602083013567ffffffffffffffff80821115610a6557600080fd5b818501915085601f830112610a7957600080fd5b813581811115610a8b57610a8b610a1d565b604051601f8201601f19908116603f01168101908382118183101715610ab357610ab3610a1d565b81604052828152886020848701011115610acc57600080fd5b8260208601602083013760006020848301015280955050505050509250929050565b60208082526017908201527f446f63756d656e7420646f6573206e6f74206578697374000000000000000000604082015260600190565b600181811c90821680610b3957607f821691505b60208210810361069f57634e487b7160e01b600052602260045260246000fd5b60208101610b6782846108e8565b92915050565b60208082526021908201527f4f6e6c79206f776e65722063616e2063616c6c20746869732066756e6374696f6040820152603760f91b606082015260800190565b601f821115610bf857600081815260208120601f850160051c81016020861015610bd55750805b601f850160051c820191505b81811015610bf457828155600101610be1565b5050505b505050565b815167ffffffffffffffff811115610c1757610c17610a1d565b610c2b81610c258454610b25565b84610bae565b602080601f831160018114610c605760008415610c485750858301515b600019600386901b1c1916600185901b178555610bf4565b600085815260208120601f198616915b82811015610c8f57888601518255948401946001909101908401610c70565b5085821015610cad5787850151600019600388901b60f8161c191681555b5050505050600190811b0190555056fea2646970667358221220b945703e0137d17e7ba47c622cea22fdecafcb3612e4bda5723f538dcc008f6564736f6c63430008130033",
  "linkReferences": {},
  "deployedLinkReferences": {}
}